{
	"contracts/MaxValue.sol": {
		"FindMinMaxValue": {
			"abi": [
				{
					"inputs": [],
					"name": "maxValue_int8",
					"outputs": [
						{
							"internalType": "uint8",
							"name": "",
							"type": "uint8"
						}
					],
					"stateMutability": "view",
					"type": "function"
				},
				{
					"inputs": [],
					"name": "maxValue_uint16",
					"outputs": [
						{
							"internalType": "uint16",
							"name": "",
							"type": "uint16"
						}
					],
					"stateMutability": "view",
					"type": "function"
				},
				{
					"inputs": [],
					"name": "maxValue_uint256",
					"outputs": [
						{
							"internalType": "uint256",
							"name": "",
							"type": "uint256"
						}
					],
					"stateMutability": "view",
					"type": "function"
				},
				{
					"inputs": [],
					"name": "maxValue_uint32",
					"outputs": [
						{
							"internalType": "uint32",
							"name": "",
							"type": "uint32"
						}
					],
					"stateMutability": "view",
					"type": "function"
				},
				{
					"inputs": [],
					"name": "minValue_uint16",
					"outputs": [
						{
							"internalType": "uint16",
							"name": "",
							"type": "uint16"
						}
					],
					"stateMutability": "view",
					"type": "function"
				},
				{
					"inputs": [],
					"name": "minValue_uint256",
					"outputs": [
						{
							"internalType": "uint256",
							"name": "",
							"type": "uint256"
						}
					],
					"stateMutability": "view",
					"type": "function"
				},
				{
					"inputs": [],
					"name": "minValue_uint32",
					"outputs": [
						{
							"internalType": "uint32",
							"name": "",
							"type": "uint32"
						}
					],
					"stateMutability": "view",
					"type": "function"
				},
				{
					"inputs": [],
					"name": "minValue_uint8",
					"outputs": [
						{
							"internalType": "uint8",
							"name": "",
							"type": "uint8"
						}
					],
					"stateMutability": "view",
					"type": "function"
				}
			],
			"devdoc": {
				"kind": "dev",
				"methods": {},
				"version": 1
			},
			"evm": {
				"assembly": "    /* \"contracts/MaxValue.sol\":66:1061  contract FindMinMaxValue{... */\n  mstore(0x40, 0x80)\n    /* \"contracts/MaxValue.sol\":571:586  type(uint8).max */\n  0xff\n    /* \"contracts/MaxValue.sol\":542:586  uint8 public maxValue_int8 = type(uint8).max */\n  0x00\n  exp(0x0100, 0x00)\n  dup2\n  sload\n  dup2\n  0xff\n  mul\n  not\n  and\n  swap1\n  dup4\n  0xff\n  and\n  mul\n  or\n  swap1\n  sstore\n  pop\n    /* \"contracts/MaxValue.sol\":625:641  type(uint16).max */\n  0xffff\n    /* \"contracts/MaxValue.sol\":593:641  uint16 public maxValue_uint16 = type(uint16).max */\n  0x00\n  exp(0x0100, 0x01)\n  dup2\n  sload\n  dup2\n  0xffff\n  mul\n  not\n  and\n  swap1\n  dup4\n  0xffff\n  and\n  mul\n  or\n  swap1\n  sstore\n  pop\n    /* \"contracts/MaxValue.sol\":680:696  type(uint32).max */\n  0xffffffff\n    /* \"contracts/MaxValue.sol\":648:696  uint32 public maxValue_uint32 = type(uint32).max */\n  0x00\n  exp(0x0100, 0x03)\n  dup2\n  sload\n  dup2\n  0xffffffff\n  mul\n  not\n  and\n  swap1\n  dup4\n  0xffffffff\n  and\n  mul\n  or\n  swap1\n  sstore\n  pop\n    /* \"contracts/MaxValue.sol\":737:754  type(uint256).max */\n  0xffffffffffffffffffffffffffffffffffffffffffffffffffffffffffffffff\n    /* \"contracts/MaxValue.sol\":703:754  uint256 public maxValue_uint256 = type(uint256).max */\n  0x01\n  sstore\n    /* \"contracts/MaxValue.sol\":793:808  type(uint8).min */\n  0x00\n    /* \"contracts/MaxValue.sol\":763:808  uint8 public minValue_uint8 = type(uint8).min */\n  0x02\n  exp(0x0100, 0x00)\n  dup2\n  sload\n  dup2\n  0xff\n  mul\n  not\n  and\n  swap1\n  dup4\n  0xff\n  and\n  mul\n  or\n  swap1\n  sstore\n  pop\n    /* \"contracts/MaxValue.sol\":847:863  type(uint16).min */\n  0x00\n    /* \"contracts/MaxValue.sol\":815:863  uint16 public minValue_uint16 = type(uint16).min */\n  0x02\n  exp(0x0100, 0x01)\n  dup2\n  sload\n  dup2\n  0xffff\n  mul\n  not\n  and\n  swap1\n  dup4\n  0xffff\n  and\n  mul\n  or\n  swap1\n  sstore\n  pop\n    /* \"contracts/MaxValue.sol\":902:918  type(uint32).min */\n  0x00\n    /* \"contracts/MaxValue.sol\":870:918  uint32 public minValue_uint32 = type(uint32).min */\n  0x02\n  exp(0x0100, 0x03)\n  dup2\n  sload\n  dup2\n  0xffffffff\n  mul\n  not\n  and\n  swap1\n  dup4\n  0xffffffff\n  and\n  mul\n  or\n  swap1\n  sstore\n  pop\n    /* \"contracts/MaxValue.sol\":959:976  type(uint256).min */\n  0x00\n    /* \"contracts/MaxValue.sol\":925:976  uint256 public minValue_uint256 = type(uint256).min */\n  0x03\n  sstore\n    /* \"contracts/MaxValue.sol\":994:997  127 */\n  0x7f\n    /* \"contracts/MaxValue.sol\":985:997  uint M = 127 */\n  0x04\n  sstore\n    /* \"contracts/MaxValue.sol\":1029:1030  2 */\n  0x02\n    /* \"contracts/MaxValue.sol\":1020:1030  uint b = 2 */\n  0x05\n  sstore\n    /* \"contracts/MaxValue.sol\":1053:1054  b */\n  sload(0x05)\n    /* \"contracts/MaxValue.sol\":1051:1052  M */\n  sload(0x04)\n    /* \"contracts/MaxValue.sol\":1051:1054  M+b */\n  tag_1\n  swap2\n  swap1\n  tag_2\n  jump\t// in\ntag_1:\n    /* \"contracts/MaxValue.sol\":1037:1054  uint result = M+b */\n  0x06\n  sstore\n    /* \"contracts/MaxValue.sol\":66:1061  contract FindMinMaxValue{... */\n  callvalue\n  dup1\n  iszero\n  tag_3\n  jumpi\n  revert(0x00, 0x00)\ntag_3:\n  pop\n  jump(tag_4)\n    /* \"#utility.yul\":7:84   */\ntag_5:\n    /* \"#utility.yul\":44:51   */\n  0x00\n    /* \"#utility.yul\":73:78   */\n  dup2\n    /* \"#utility.yul\":62:78   */\n  swap1\n  pop\n    /* \"#utility.yul\":7:84   */\n  swap2\n  swap1\n  pop\n  jump\t// out\n    /* \"#utility.yul\":90:270   */\ntag_6:\n    /* \"#utility.yul\":138:215   */\n  0x4e487b7100000000000000000000000000000000000000000000000000000000\n    /* \"#utility.yul\":135:136   */\n  0x00\n    /* \"#utility.yul\":128:216   */\n  mstore\n    /* \"#utility.yul\":235:239   */\n  0x11\n    /* \"#utility.yul\":232:233   */\n  0x04\n    /* \"#utility.yul\":225:240   */\n  mstore\n    /* \"#utility.yul\":259:263   */\n  0x24\n    /* \"#utility.yul\":256:257   */\n  0x00\n    /* \"#utility.yul\":249:264   */\n  revert\n    /* \"#utility.yul\":276:467   */\ntag_2:\n    /* \"#utility.yul\":316:319   */\n  0x00\n    /* \"#utility.yul\":335:355   */\n  tag_11\n    /* \"#utility.yul\":353:354   */\n  dup3\n    /* \"#utility.yul\":335:355   */\n  tag_5\n  jump\t// in\ntag_11:\n    /* \"#utility.yul\":330:355   */\n  swap2\n  pop\n    /* \"#utility.yul\":369:389   */\n  tag_12\n    /* \"#utility.yul\":387:388   */\n  dup4\n    /* \"#utility.yul\":369:389   */\n  tag_5\n  jump\t// in\ntag_12:\n    /* \"#utility.yul\":364:389   */\n  swap3\n  pop\n    /* \"#utility.yul\":412:413   */\n  dup3\n    /* \"#utility.yul\":409:410   */\n  dup3\n    /* \"#utility.yul\":405:414   */\n  add\n    /* \"#utility.yul\":398:414   */\n  swap1\n  pop\n    /* \"#utility.yul\":433:436   */\n  dup1\n    /* \"#utility.yul\":430:431   */\n  dup3\n    /* \"#utility.yul\":427:437   */\n  gt\n    /* \"#utility.yul\":424:460   */\n  iszero\n  tag_13\n  jumpi\n    /* \"#utility.yul\":440:458   */\n  tag_14\n  tag_6\n  jump\t// in\ntag_14:\n    /* \"#utility.yul\":424:460   */\ntag_13:\n    /* \"#utility.yul\":276:467   */\n  swap3\n  swap2\n  pop\n  pop\n  jump\t// out\n    /* \"contracts/MaxValue.sol\":66:1061  contract FindMinMaxValue{... */\ntag_4:\n  dataSize(sub_0)\n  dup1\n  dataOffset(sub_0)\n  0x00\n  codecopy\n  0x00\n  return\nstop\n\nsub_0: assembly {\n        /* \"contracts/MaxValue.sol\":66:1061  contract FindMinMaxValue{... */\n      mstore(0x40, 0x80)\n      callvalue\n      dup1\n      iszero\n      tag_1\n      jumpi\n      revert(0x00, 0x00)\n    tag_1:\n      pop\n      jumpi(tag_2, lt(calldatasize, 0x04))\n      shr(0xe0, calldataload(0x00))\n      dup1\n      0x9c89a7bd\n      gt\n      tag_11\n      jumpi\n      dup1\n      0x9c89a7bd\n      eq\n      tag_7\n      jumpi\n      dup1\n      0xad5572f8\n      eq\n      tag_8\n      jumpi\n      dup1\n      0xbbebf553\n      eq\n      tag_9\n      jumpi\n      dup1\n      0xc30e1120\n      eq\n      tag_10\n      jumpi\n      jump(tag_2)\n    tag_11:\n      dup1\n      0x152ae3\n      eq\n      tag_3\n      jumpi\n      dup1\n      0x4b275d2a\n      eq\n      tag_4\n      jumpi\n      dup1\n      0x5f8b5400\n      eq\n      tag_5\n      jumpi\n      dup1\n      0x76cfb3ee\n      eq\n      tag_6\n      jumpi\n    tag_2:\n      revert(0x00, 0x00)\n        /* \"contracts/MaxValue.sol\":542:586  uint8 public maxValue_int8 = type(uint8).max */\n    tag_3:\n      tag_12\n      tag_13\n      jump\t// in\n    tag_12:\n      mload(0x40)\n      tag_14\n      swap2\n      swap1\n      tag_15\n      jump\t// in\n    tag_14:\n      mload(0x40)\n      dup1\n      swap2\n      sub\n      swap1\n      return\n        /* \"contracts/MaxValue.sol\":593:641  uint16 public maxValue_uint16 = type(uint16).max */\n    tag_4:\n      tag_16\n      tag_17\n      jump\t// in\n    tag_16:\n      mload(0x40)\n      tag_18\n      swap2\n      swap1\n      tag_19\n      jump\t// in\n    tag_18:\n      mload(0x40)\n      dup1\n      swap2\n      sub\n      swap1\n      return\n        /* \"contracts/MaxValue.sol\":648:696  uint32 public maxValue_uint32 = type(uint32).max */\n    tag_5:\n      tag_20\n      tag_21\n      jump\t// in\n    tag_20:\n      mload(0x40)\n      tag_22\n      swap2\n      swap1\n      tag_23\n      jump\t// in\n    tag_22:\n      mload(0x40)\n      dup1\n      swap2\n      sub\n      swap1\n      return\n        /* \"contracts/MaxValue.sol\":763:808  uint8 public minValue_uint8 = type(uint8).min */\n    tag_6:\n      tag_24\n      tag_25\n      jump\t// in\n    tag_24:\n      mload(0x40)\n      tag_26\n      swap2\n      swap1\n      tag_15\n      jump\t// in\n    tag_26:\n      mload(0x40)\n      dup1\n      swap2\n      sub\n      swap1\n      return\n        /* \"contracts/MaxValue.sol\":815:863  uint16 public minValue_uint16 = type(uint16).min */\n    tag_7:\n      tag_27\n      tag_28\n      jump\t// in\n    tag_27:\n      mload(0x40)\n      tag_29\n      swap2\n      swap1\n      tag_19\n      jump\t// in\n    tag_29:\n      mload(0x40)\n      dup1\n      swap2\n      sub\n      swap1\n      return\n        /* \"contracts/MaxValue.sol\":703:754  uint256 public maxValue_uint256 = type(uint256).max */\n    tag_8:\n      tag_30\n      tag_31\n      jump\t// in\n    tag_30:\n      mload(0x40)\n      tag_32\n      swap2\n      swap1\n      tag_33\n      jump\t// in\n    tag_32:\n      mload(0x40)\n      dup1\n      swap2\n      sub\n      swap1\n      return\n        /* \"contracts/MaxValue.sol\":870:918  uint32 public minValue_uint32 = type(uint32).min */\n    tag_9:\n      tag_34\n      tag_35\n      jump\t// in\n    tag_34:\n      mload(0x40)\n      tag_36\n      swap2\n      swap1\n      tag_23\n      jump\t// in\n    tag_36:\n      mload(0x40)\n      dup1\n      swap2\n      sub\n      swap1\n      return\n        /* \"contracts/MaxValue.sol\":925:976  uint256 public minValue_uint256 = type(uint256).min */\n    tag_10:\n      tag_37\n      tag_38\n      jump\t// in\n    tag_37:\n      mload(0x40)\n      tag_39\n      swap2\n      swap1\n      tag_33\n      jump\t// in\n    tag_39:\n      mload(0x40)\n      dup1\n      swap2\n      sub\n      swap1\n      return\n        /* \"contracts/MaxValue.sol\":542:586  uint8 public maxValue_int8 = type(uint8).max */\n    tag_13:\n      0x00\n      0x00\n      swap1\n      sload\n      swap1\n      0x0100\n      exp\n      swap1\n      div\n      0xff\n      and\n      dup2\n      jump\t// out\n        /* \"contracts/MaxValue.sol\":593:641  uint16 public maxValue_uint16 = type(uint16).max */\n    tag_17:\n      0x00\n      0x01\n      swap1\n      sload\n      swap1\n      0x0100\n      exp\n      swap1\n      div\n      0xffff\n      and\n      dup2\n      jump\t// out\n        /* \"contracts/MaxValue.sol\":648:696  uint32 public maxValue_uint32 = type(uint32).max */\n    tag_21:\n      0x00\n      0x03\n      swap1\n      sload\n      swap1\n      0x0100\n      exp\n      swap1\n      div\n      0xffffffff\n      and\n      dup2\n      jump\t// out\n        /* \"contracts/MaxValue.sol\":763:808  uint8 public minValue_uint8 = type(uint8).min */\n    tag_25:\n      0x02\n      0x00\n      swap1\n      sload\n      swap1\n      0x0100\n      exp\n      swap1\n      div\n      0xff\n      and\n      dup2\n      jump\t// out\n        /* \"contracts/MaxValue.sol\":815:863  uint16 public minValue_uint16 = type(uint16).min */\n    tag_28:\n      0x02\n      0x01\n      swap1\n      sload\n      swap1\n      0x0100\n      exp\n      swap1\n      div\n      0xffff\n      and\n      dup2\n      jump\t// out\n        /* \"contracts/MaxValue.sol\":703:754  uint256 public maxValue_uint256 = type(uint256).max */\n    tag_31:\n      sload(0x01)\n      dup2\n      jump\t// out\n        /* \"contracts/MaxValue.sol\":870:918  uint32 public minValue_uint32 = type(uint32).min */\n    tag_35:\n      0x02\n      0x03\n      swap1\n      sload\n      swap1\n      0x0100\n      exp\n      swap1\n      div\n      0xffffffff\n      and\n      dup2\n      jump\t// out\n        /* \"contracts/MaxValue.sol\":925:976  uint256 public minValue_uint256 = type(uint256).min */\n    tag_38:\n      sload(0x03)\n      dup2\n      jump\t// out\n        /* \"#utility.yul\":7:93   */\n    tag_40:\n        /* \"#utility.yul\":42:49   */\n      0x00\n        /* \"#utility.yul\":82:86   */\n      0xff\n        /* \"#utility.yul\":75:80   */\n      dup3\n        /* \"#utility.yul\":71:87   */\n      and\n        /* \"#utility.yul\":60:87   */\n      swap1\n      pop\n        /* \"#utility.yul\":7:93   */\n      swap2\n      swap1\n      pop\n      jump\t// out\n        /* \"#utility.yul\":99:211   */\n    tag_41:\n        /* \"#utility.yul\":182:204   */\n      tag_51\n        /* \"#utility.yul\":198:203   */\n      dup2\n        /* \"#utility.yul\":182:204   */\n      tag_40\n      jump\t// in\n    tag_51:\n        /* \"#utility.yul\":177:180   */\n      dup3\n        /* \"#utility.yul\":170:205   */\n      mstore\n        /* \"#utility.yul\":99:211   */\n      pop\n      pop\n      jump\t// out\n        /* \"#utility.yul\":217:431   */\n    tag_15:\n        /* \"#utility.yul\":306:310   */\n      0x00\n        /* \"#utility.yul\":344:346   */\n      0x20\n        /* \"#utility.yul\":333:342   */\n      dup3\n        /* \"#utility.yul\":329:347   */\n      add\n        /* \"#utility.yul\":321:347   */\n      swap1\n      pop\n        /* \"#utility.yul\":357:424   */\n      tag_53\n        /* \"#utility.yul\":421:422   */\n      0x00\n        /* \"#utility.yul\":410:419   */\n      dup4\n        /* \"#utility.yul\":406:423   */\n      add\n        /* \"#utility.yul\":397:403   */\n      dup5\n        /* \"#utility.yul\":357:424   */\n      tag_41\n      jump\t// in\n    tag_53:\n        /* \"#utility.yul\":217:431   */\n      swap3\n      swap2\n      pop\n      pop\n      jump\t// out\n        /* \"#utility.yul\":437:526   */\n    tag_42:\n        /* \"#utility.yul\":473:480   */\n      0x00\n        /* \"#utility.yul\":513:519   */\n      0xffff\n        /* \"#utility.yul\":506:511   */\n      dup3\n        /* \"#utility.yul\":502:520   */\n      and\n        /* \"#utility.yul\":491:520   */\n      swap1\n      pop\n        /* \"#utility.yul\":437:526   */\n      swap2\n      swap1\n      pop\n      jump\t// out\n        /* \"#utility.yul\":532:647   */\n    tag_43:\n        /* \"#utility.yul\":617:640   */\n      tag_56\n        /* \"#utility.yul\":634:639   */\n      dup2\n        /* \"#utility.yul\":617:640   */\n      tag_42\n      jump\t// in\n    tag_56:\n        /* \"#utility.yul\":612:615   */\n      dup3\n        /* \"#utility.yul\":605:641   */\n      mstore\n        /* \"#utility.yul\":532:647   */\n      pop\n      pop\n      jump\t// out\n        /* \"#utility.yul\":653:871   */\n    tag_19:\n        /* \"#utility.yul\":744:748   */\n      0x00\n        /* \"#utility.yul\":782:784   */\n      0x20\n        /* \"#utility.yul\":771:780   */\n      dup3\n        /* \"#utility.yul\":767:785   */\n      add\n        /* \"#utility.yul\":759:785   */\n      swap1\n      pop\n        /* \"#utility.yul\":795:864   */\n      tag_58\n        /* \"#utility.yul\":861:862   */\n      0x00\n        /* \"#utility.yul\":850:859   */\n      dup4\n        /* \"#utility.yul\":846:863   */\n      add\n        /* \"#utility.yul\":837:843   */\n      dup5\n        /* \"#utility.yul\":795:864   */\n      tag_43\n      jump\t// in\n    tag_58:\n        /* \"#utility.yul\":653:871   */\n      swap3\n      swap2\n      pop\n      pop\n      jump\t// out\n        /* \"#utility.yul\":877:970   */\n    tag_44:\n        /* \"#utility.yul\":913:920   */\n      0x00\n        /* \"#utility.yul\":953:963   */\n      0xffffffff\n        /* \"#utility.yul\":946:951   */\n      dup3\n        /* \"#utility.yul\":942:964   */\n      and\n        /* \"#utility.yul\":931:964   */\n      swap1\n      pop\n        /* \"#utility.yul\":877:970   */\n      swap2\n      swap1\n      pop\n      jump\t// out\n        /* \"#utility.yul\":976:1091   */\n    tag_45:\n        /* \"#utility.yul\":1061:1084   */\n      tag_61\n        /* \"#utility.yul\":1078:1083   */\n      dup2\n        /* \"#utility.yul\":1061:1084   */\n      tag_44\n      jump\t// in\n    tag_61:\n        /* \"#utility.yul\":1056:1059   */\n      dup3\n        /* \"#utility.yul\":1049:1085   */\n      mstore\n        /* \"#utility.yul\":976:1091   */\n      pop\n      pop\n      jump\t// out\n        /* \"#utility.yul\":1097:1315   */\n    tag_23:\n        /* \"#utility.yul\":1188:1192   */\n      0x00\n        /* \"#utility.yul\":1226:1228   */\n      0x20\n        /* \"#utility.yul\":1215:1224   */\n      dup3\n        /* \"#utility.yul\":1211:1229   */\n      add\n        /* \"#utility.yul\":1203:1229   */\n      swap1\n      pop\n        /* \"#utility.yul\":1239:1308   */\n      tag_63\n        /* \"#utility.yul\":1305:1306   */\n      0x00\n        /* \"#utility.yul\":1294:1303   */\n      dup4\n        /* \"#utility.yul\":1290:1307   */\n      add\n        /* \"#utility.yul\":1281:1287   */\n      dup5\n        /* \"#utility.yul\":1239:1308   */\n      tag_45\n      jump\t// in\n    tag_63:\n        /* \"#utility.yul\":1097:1315   */\n      swap3\n      swap2\n      pop\n      pop\n      jump\t// out\n        /* \"#utility.yul\":1321:1398   */\n    tag_46:\n        /* \"#utility.yul\":1358:1365   */\n      0x00\n        /* \"#utility.yul\":1387:1392   */\n      dup2\n        /* \"#utility.yul\":1376:1392   */\n      swap1\n      pop\n        /* \"#utility.yul\":1321:1398   */\n      swap2\n      swap1\n      pop\n      jump\t// out\n        /* \"#utility.yul\":1404:1522   */\n    tag_47:\n        /* \"#utility.yul\":1491:1515   */\n      tag_66\n        /* \"#utility.yul\":1509:1514   */\n      dup2\n        /* \"#utility.yul\":1491:1515   */\n      tag_46\n      jump\t// in\n    tag_66:\n        /* \"#utility.yul\":1486:1489   */\n      dup3\n        /* \"#utility.yul\":1479:1516   */\n      mstore\n        /* \"#utility.yul\":1404:1522   */\n      pop\n      pop\n      jump\t// out\n        /* \"#utility.yul\":1528:1750   */\n    tag_33:\n        /* \"#utility.yul\":1621:1625   */\n      0x00\n        /* \"#utility.yul\":1659:1661   */\n      0x20\n        /* \"#utility.yul\":1648:1657   */\n      dup3\n        /* \"#utility.yul\":1644:1662   */\n      add\n        /* \"#utility.yul\":1636:1662   */\n      swap1\n      pop\n        /* \"#utility.yul\":1672:1743   */\n      tag_68\n        /* \"#utility.yul\":1740:1741   */\n      0x00\n        /* \"#utility.yul\":1729:1738   */\n      dup4\n        /* \"#utility.yul\":1725:1742   */\n      add\n        /* \"#utility.yul\":1716:1722   */\n      dup5\n        /* \"#utility.yul\":1672:1743   */\n      tag_47\n      jump\t// in\n    tag_68:\n        /* \"#utility.yul\":1528:1750   */\n      swap3\n      swap2\n      pop\n      pop\n      jump\t// out\n\n    auxdata: 0xa26469706673582212203ecacbc97e3c335c3c218f41907226e11362ac790258fac2692454678989213364736f6c634300081e0033\n}\n",
				"bytecode": {
					"linkReferences": {},
					"object": "608060405260ff5f5f6101000a81548160ff021916908360ff16021790555061ffff5f60016101000a81548161ffff021916908361ffff16021790555063ffffffff5f60036101000a81548163ffffffff021916908363ffffffff1602179055507fffffffffffffffffffffffffffffffffffffffffffffffffffffffffffffffff6001555f60025f6101000a81548160ff021916908360ff1602179055505f600260016101000a81548161ffff021916908361ffff1602179055505f600260036101000a81548163ffffffff021916908363ffffffff1602179055505f600355607f60045560026005556005546004546100fa9190610144565b600655348015610108575f5ffd5b50610177565b5f819050919050565b7f4e487b71000000000000000000000000000000000000000000000000000000005f52601160045260245ffd5b5f61014e8261010e565b91506101598361010e565b925082820190508082111561017157610170610117565b5b92915050565b610301806101845f395ff3fe608060405234801561000f575f5ffd5b5060043610610085575f3560e01c80639c89a7bd116100595780639c89a7bd14610101578063ad5572f81461011f578063bbebf5531461013d578063c30e11201461015b57610085565b8062152ae3146100895780634b275d2a146100a75780635f8b5400146100c557806376cfb3ee146100e3575b5f5ffd5b610091610179565b60405161009e9190610215565b60405180910390f35b6100af61018a565b6040516100bc919061024a565b60405180910390f35b6100cd61019d565b6040516100da9190610281565b60405180910390f35b6100eb6101b2565b6040516100f89190610215565b60405180910390f35b6101096101c4565b604051610116919061024a565b60405180910390f35b6101276101d8565b60405161013491906102b2565b60405180910390f35b6101456101de565b6040516101529190610281565b60405180910390f35b6101636101f4565b60405161017091906102b2565b60405180910390f35b5f5f9054906101000a900460ff1681565b5f60019054906101000a900461ffff1681565b5f60039054906101000a900463ffffffff1681565b60025f9054906101000a900460ff1681565b600260019054906101000a900461ffff1681565b60015481565b600260039054906101000a900463ffffffff1681565b60035481565b5f60ff82169050919050565b61020f816101fa565b82525050565b5f6020820190506102285f830184610206565b92915050565b5f61ffff82169050919050565b6102448161022e565b82525050565b5f60208201905061025d5f83018461023b565b92915050565b5f63ffffffff82169050919050565b61027b81610263565b82525050565b5f6020820190506102945f830184610272565b92915050565b5f819050919050565b6102ac8161029a565b82525050565b5f6020820190506102c55f8301846102a3565b9291505056fea26469706673582212203ecacbc97e3c335c3c218f41907226e11362ac790258fac2692454678989213364736f6c634300081e0033",
					"opcodes": "PUSH1 0x80 PUSH1 0x40 MSTORE PUSH1 0xFF PUSH0 PUSH0 PUSH2 0x100 EXP DUP2 SLOAD DUP2 PUSH1 0xFF MUL NOT AND SWAP1 DUP4 PUSH1 0xFF AND MUL OR SWAP1 SSTORE POP PUSH2 0xFFFF PUSH0 PUSH1 0x1 PUSH2 0x100 EXP DUP2 SLOAD DUP2 PUSH2 0xFFFF MUL NOT AND SWAP1 DUP4 PUSH2 0xFFFF AND MUL OR SWAP1 SSTORE POP PUSH4 0xFFFFFFFF PUSH0 PUSH1 0x3 PUSH2 0x100 EXP DUP2 SLOAD DUP2 PUSH4 0xFFFFFFFF MUL NOT AND SWAP1 DUP4 PUSH4 0xFFFFFFFF AND MUL OR SWAP1 SSTORE POP PUSH32 0xFFFFFFFFFFFFFFFFFFFFFFFFFFFFFFFFFFFFFFFFFFFFFFFFFFFFFFFFFFFFFFFF PUSH1 0x1 SSTORE PUSH0 PUSH1 0x2 PUSH0 PUSH2 0x100 EXP DUP2 SLOAD DUP2 PUSH1 0xFF MUL NOT AND SWAP1 DUP4 PUSH1 0xFF AND MUL OR SWAP1 SSTORE POP PUSH0 PUSH1 0x2 PUSH1 0x1 PUSH2 0x100 EXP DUP2 SLOAD DUP2 PUSH2 0xFFFF MUL NOT AND SWAP1 DUP4 PUSH2 0xFFFF AND MUL OR SWAP1 SSTORE POP PUSH0 PUSH1 0x2 PUSH1 0x3 PUSH2 0x100 EXP DUP2 SLOAD DUP2 PUSH4 0xFFFFFFFF MUL NOT AND SWAP1 DUP4 PUSH4 0xFFFFFFFF AND MUL OR SWAP1 SSTORE POP PUSH0 PUSH1 0x3 SSTORE PUSH1 0x7F PUSH1 0x4 SSTORE PUSH1 0x2 PUSH1 0x5 SSTORE PUSH1 0x5 SLOAD PUSH1 0x4 SLOAD PUSH2 0xFA SWAP2 SWAP1 PUSH2 0x144 JUMP JUMPDEST PUSH1 0x6 SSTORE CALLVALUE DUP1 ISZERO PUSH2 0x108 JUMPI PUSH0 PUSH0 REVERT JUMPDEST POP PUSH2 0x177 JUMP JUMPDEST PUSH0 DUP2 SWAP1 POP SWAP2 SWAP1 POP JUMP JUMPDEST PUSH32 0x4E487B7100000000000000000000000000000000000000000000000000000000 PUSH0 MSTORE PUSH1 0x11 PUSH1 0x4 MSTORE PUSH1 0x24 PUSH0 REVERT JUMPDEST PUSH0 PUSH2 0x14E DUP3 PUSH2 0x10E JUMP JUMPDEST SWAP2 POP PUSH2 0x159 DUP4 PUSH2 0x10E JUMP JUMPDEST SWAP3 POP DUP3 DUP3 ADD SWAP1 POP DUP1 DUP3 GT ISZERO PUSH2 0x171 JUMPI PUSH2 0x170 PUSH2 0x117 JUMP JUMPDEST JUMPDEST SWAP3 SWAP2 POP POP JUMP JUMPDEST PUSH2 0x301 DUP1 PUSH2 0x184 PUSH0 CODECOPY PUSH0 RETURN INVALID PUSH1 0x80 PUSH1 0x40 MSTORE CALLVALUE DUP1 ISZERO PUSH2 0xF JUMPI PUSH0 PUSH0 REVERT JUMPDEST POP PUSH1 0x4 CALLDATASIZE LT PUSH2 0x85 JUMPI PUSH0 CALLDATALOAD PUSH1 0xE0 SHR DUP1 PUSH4 0x9C89A7BD GT PUSH2 0x59 JUMPI DUP1 PUSH4 0x9C89A7BD EQ PUSH2 0x101 JUMPI DUP1 PUSH4 0xAD5572F8 EQ PUSH2 0x11F JUMPI DUP1 PUSH4 0xBBEBF553 EQ PUSH2 0x13D JUMPI DUP1 PUSH4 0xC30E1120 EQ PUSH2 0x15B JUMPI PUSH2 0x85 JUMP JUMPDEST DUP1 PUSH3 0x152AE3 EQ PUSH2 0x89 JUMPI DUP1 PUSH4 0x4B275D2A EQ PUSH2 0xA7 JUMPI DUP1 PUSH4 0x5F8B5400 EQ PUSH2 0xC5 JUMPI DUP1 PUSH4 0x76CFB3EE EQ PUSH2 0xE3 JUMPI JUMPDEST PUSH0 PUSH0 REVERT JUMPDEST PUSH2 0x91 PUSH2 0x179 JUMP JUMPDEST PUSH1 0x40 MLOAD PUSH2 0x9E SWAP2 SWAP1 PUSH2 0x215 JUMP JUMPDEST PUSH1 0x40 MLOAD DUP1 SWAP2 SUB SWAP1 RETURN JUMPDEST PUSH2 0xAF PUSH2 0x18A JUMP JUMPDEST PUSH1 0x40 MLOAD PUSH2 0xBC SWAP2 SWAP1 PUSH2 0x24A JUMP JUMPDEST PUSH1 0x40 MLOAD DUP1 SWAP2 SUB SWAP1 RETURN JUMPDEST PUSH2 0xCD PUSH2 0x19D JUMP JUMPDEST PUSH1 0x40 MLOAD PUSH2 0xDA SWAP2 SWAP1 PUSH2 0x281 JUMP JUMPDEST PUSH1 0x40 MLOAD DUP1 SWAP2 SUB SWAP1 RETURN JUMPDEST PUSH2 0xEB PUSH2 0x1B2 JUMP JUMPDEST PUSH1 0x40 MLOAD PUSH2 0xF8 SWAP2 SWAP1 PUSH2 0x215 JUMP JUMPDEST PUSH1 0x40 MLOAD DUP1 SWAP2 SUB SWAP1 RETURN JUMPDEST PUSH2 0x109 PUSH2 0x1C4 JUMP JUMPDEST PUSH1 0x40 MLOAD PUSH2 0x116 SWAP2 SWAP1 PUSH2 0x24A JUMP JUMPDEST PUSH1 0x40 MLOAD DUP1 SWAP2 SUB SWAP1 RETURN JUMPDEST PUSH2 0x127 PUSH2 0x1D8 JUMP JUMPDEST PUSH1 0x40 MLOAD PUSH2 0x134 SWAP2 SWAP1 PUSH2 0x2B2 JUMP JUMPDEST PUSH1 0x40 MLOAD DUP1 SWAP2 SUB SWAP1 RETURN JUMPDEST PUSH2 0x145 PUSH2 0x1DE JUMP JUMPDEST PUSH1 0x40 MLOAD PUSH2 0x152 SWAP2 SWAP1 PUSH2 0x281 JUMP JUMPDEST PUSH1 0x40 MLOAD DUP1 SWAP2 SUB SWAP1 RETURN JUMPDEST PUSH2 0x163 PUSH2 0x1F4 JUMP JUMPDEST PUSH1 0x40 MLOAD PUSH2 0x170 SWAP2 SWAP1 PUSH2 0x2B2 JUMP JUMPDEST PUSH1 0x40 MLOAD DUP1 SWAP2 SUB SWAP1 RETURN JUMPDEST PUSH0 PUSH0 SWAP1 SLOAD SWAP1 PUSH2 0x100 EXP SWAP1 DIV PUSH1 0xFF AND DUP2 JUMP JUMPDEST PUSH0 PUSH1 0x1 SWAP1 SLOAD SWAP1 PUSH2 0x100 EXP SWAP1 DIV PUSH2 0xFFFF AND DUP2 JUMP JUMPDEST PUSH0 PUSH1 0x3 SWAP1 SLOAD SWAP1 PUSH2 0x100 EXP SWAP1 DIV PUSH4 0xFFFFFFFF AND DUP2 JUMP JUMPDEST PUSH1 0x2 PUSH0 SWAP1 SLOAD SWAP1 PUSH2 0x100 EXP SWAP1 DIV PUSH1 0xFF AND DUP2 JUMP JUMPDEST PUSH1 0x2 PUSH1 0x1 SWAP1 SLOAD SWAP1 PUSH2 0x100 EXP SWAP1 DIV PUSH2 0xFFFF AND DUP2 JUMP JUMPDEST PUSH1 0x1 SLOAD DUP2 JUMP JUMPDEST PUSH1 0x2 PUSH1 0x3 SWAP1 SLOAD SWAP1 PUSH2 0x100 EXP SWAP1 DIV PUSH4 0xFFFFFFFF AND DUP2 JUMP JUMPDEST PUSH1 0x3 SLOAD DUP2 JUMP JUMPDEST PUSH0 PUSH1 0xFF DUP3 AND SWAP1 POP SWAP2 SWAP1 POP JUMP JUMPDEST PUSH2 0x20F DUP2 PUSH2 0x1FA JUMP JUMPDEST DUP3 MSTORE POP POP JUMP JUMPDEST PUSH0 PUSH1 0x20 DUP3 ADD SWAP1 POP PUSH2 0x228 PUSH0 DUP4 ADD DUP5 PUSH2 0x206 JUMP JUMPDEST SWAP3 SWAP2 POP POP JUMP JUMPDEST PUSH0 PUSH2 0xFFFF DUP3 AND SWAP1 POP SWAP2 SWAP1 POP JUMP JUMPDEST PUSH2 0x244 DUP2 PUSH2 0x22E JUMP JUMPDEST DUP3 MSTORE POP POP JUMP JUMPDEST PUSH0 PUSH1 0x20 DUP3 ADD SWAP1 POP PUSH2 0x25D PUSH0 DUP4 ADD DUP5 PUSH2 0x23B JUMP JUMPDEST SWAP3 SWAP2 POP POP JUMP JUMPDEST PUSH0 PUSH4 0xFFFFFFFF DUP3 AND SWAP1 POP SWAP2 SWAP1 POP JUMP JUMPDEST PUSH2 0x27B DUP2 PUSH2 0x263 JUMP JUMPDEST DUP3 MSTORE POP POP JUMP JUMPDEST PUSH0 PUSH1 0x20 DUP3 ADD SWAP1 POP PUSH2 0x294 PUSH0 DUP4 ADD DUP5 PUSH2 0x272 JUMP JUMPDEST SWAP3 SWAP2 POP POP JUMP JUMPDEST PUSH0 DUP2 SWAP1 POP SWAP2 SWAP1 POP JUMP JUMPDEST PUSH2 0x2AC DUP2 PUSH2 0x29A JUMP JUMPDEST DUP3 MSTORE POP POP JUMP JUMPDEST PUSH0 PUSH1 0x20 DUP3 ADD SWAP1 POP PUSH2 0x2C5 PUSH0 DUP4 ADD DUP5 PUSH2 0x2A3 JUMP JUMPDEST SWAP3 SWAP2 POP POP JUMP INVALID LOG2 PUSH5 0x6970667358 0x22 SLT KECCAK256 RETURNDATACOPY 0xCA 0xCB 0xC9 PUSH31 0x3C335C3C218F41907226E11362AC790258FAC2692454678989213364736F6C PUSH4 0x4300081E STOP CALLER "
				},
				"gasEstimates": {
					"creation": {
						"codeDepositCost": "153800",
						"executionCost": "infinite",
						"totalCost": "infinite"
					},
					"external": {
						"maxValue_int8()": "2466",
						"maxValue_uint16()": "2539",
						"maxValue_uint256()": "2447",
						"maxValue_uint32()": "2561",
						"minValue_uint16()": "2517",
						"minValue_uint256()": "2491",
						"minValue_uint32()": "2561",
						"minValue_uint8()": "2533"
					}
				},
				"methodIdentifiers": {
					"maxValue_int8()": "00152ae3",
					"maxValue_uint16()": "4b275d2a",
					"maxValue_uint256()": "ad5572f8",
					"maxValue_uint32()": "5f8b5400",
					"minValue_uint16()": "9c89a7bd",
					"minValue_uint256()": "c30e1120",
					"minValue_uint32()": "bbebf553",
					"minValue_uint8()": "76cfb3ee"
				}
			},
			"storageLayout": {
				"storage": [
					{
						"astId": 8,
						"contract": "contracts/MaxValue.sol:FindMinMaxValue",
						"label": "maxValue_int8",
						"offset": 0,
						"slot": "0",
						"type": "t_uint8"
					},
					{
						"astId": 15,
						"contract": "contracts/MaxValue.sol:FindMinMaxValue",
						"label": "maxValue_uint16",
						"offset": 1,
						"slot": "0",
						"type": "t_uint16"
					},
					{
						"astId": 22,
						"contract": "contracts/MaxValue.sol:FindMinMaxValue",
						"label": "maxValue_uint32",
						"offset": 3,
						"slot": "0",
						"type": "t_uint32"
					},
					{
						"astId": 29,
						"contract": "contracts/MaxValue.sol:FindMinMaxValue",
						"label": "maxValue_uint256",
						"offset": 0,
						"slot": "1",
						"type": "t_uint256"
					},
					{
						"astId": 36,
						"contract": "contracts/MaxValue.sol:FindMinMaxValue",
						"label": "minValue_uint8",
						"offset": 0,
						"slot": "2",
						"type": "t_uint8"
					},
					{
						"astId": 43,
						"contract": "contracts/MaxValue.sol:FindMinMaxValue",
						"label": "minValue_uint16",
						"offset": 1,
						"slot": "2",
						"type": "t_uint16"
					},
					{
						"astId": 50,
						"contract": "contracts/MaxValue.sol:FindMinMaxValue",
						"label": "minValue_uint32",
						"offset": 3,
						"slot": "2",
						"type": "t_uint32"
					},
					{
						"astId": 57,
						"contract": "contracts/MaxValue.sol:FindMinMaxValue",
						"label": "minValue_uint256",
						"offset": 0,
						"slot": "3",
						"type": "t_uint256"
					},
					{
						"astId": 60,
						"contract": "contracts/MaxValue.sol:FindMinMaxValue",
						"label": "M",
						"offset": 0,
						"slot": "4",
						"type": "t_uint256"
					},
					{
						"astId": 63,
						"contract": "contracts/MaxValue.sol:FindMinMaxValue",
						"label": "b",
						"offset": 0,
						"slot": "5",
						"type": "t_uint256"
					},
					{
						"astId": 68,
						"contract": "contracts/MaxValue.sol:FindMinMaxValue",
						"label": "result",
						"offset": 0,
						"slot": "6",
						"type": "t_uint256"
					}
				],
				"types": {
					"t_uint16": {
						"encoding": "inplace",
						"label": "uint16",
						"numberOfBytes": "2"
					},
					"t_uint256": {
						"encoding": "inplace",
						"label": "uint256",
						"numberOfBytes": "32"
					},
					"t_uint32": {
						"encoding": "inplace",
						"label": "uint32",
						"numberOfBytes": "4"
					},
					"t_uint8": {
						"encoding": "inplace",
						"label": "uint8",
						"numberOfBytes": "1"
					}
				}
			},
			"userdoc": {
				"kind": "user",
				"methods": {},
				"version": 1
			}
		}
	}
}